{
  "address": "0x6D514bD3b9fd89a2147938F92b606c05DCe443D0",
  "abi": [
    {
      "inputs": [
        {
          "internalType": "contract FeedRegistryInterface",
          "name": "_priceFeed",
          "type": "address"
        },
        {
          "internalType": "address",
          "name": "_weth",
          "type": "address"
        },
        {
          "internalType": "address",
          "name": "_wbtc",
          "type": "address"
        }
      ],
      "stateMutability": "nonpayable",
      "type": "constructor"
    },
    {
      "anonymous": false,
      "inputs": [
        {
          "indexed": true,
          "internalType": "address",
          "name": "previousGovernor",
          "type": "address"
        },
        {
          "indexed": true,
          "internalType": "address",
          "name": "proposedGovernor",
          "type": "address"
        }
      ],
      "name": "UpdatedGovernor",
      "type": "event"
    },
    {
      "inputs": [],
      "name": "USD",
      "outputs": [
        {
          "internalType": "address",
          "name": "",
          "type": "address"
        }
      ],
      "stateMutability": "view",
      "type": "function"
    },
    {
      "inputs": [],
      "name": "acceptGovernorship",
      "outputs": [],
      "stateMutability": "nonpayable",
      "type": "function"
    },
    {
      "inputs": [],
      "name": "governor",
      "outputs": [
        {
          "internalType": "address",
          "name": "",
          "type": "address"
        }
      ],
      "stateMutability": "view",
      "type": "function"
    },
    {
      "inputs": [],
      "name": "priceFeed",
      "outputs": [
        {
          "internalType": "contract FeedRegistryInterface",
          "name": "",
          "type": "address"
        }
      ],
      "stateMutability": "view",
      "type": "function"
    },
    {
      "inputs": [
        {
          "internalType": "address",
          "name": "_assetIn",
          "type": "address"
        },
        {
          "internalType": "address",
          "name": "_assetOut",
          "type": "address"
        },
        {
          "internalType": "uint256",
          "name": "_amountIn",
          "type": "uint256"
        }
      ],
      "name": "quote",
      "outputs": [
        {
          "internalType": "uint256",
          "name": "_amountOut",
          "type": "uint256"
        },
        {
          "internalType": "uint256",
          "name": "_lastUpdatedAt",
          "type": "uint256"
        }
      ],
      "stateMutability": "view",
      "type": "function"
    },
    {
      "inputs": [
        {
          "internalType": "address",
          "name": "_token",
          "type": "address"
        },
        {
          "internalType": "uint256",
          "name": "_amount",
          "type": "uint256"
        }
      ],
      "name": "quoteTokenToUsd",
      "outputs": [
        {
          "internalType": "uint256",
          "name": "_amountInUsd",
          "type": "uint256"
        },
        {
          "internalType": "uint256",
          "name": "_lastUpdatedAt",
          "type": "uint256"
        }
      ],
      "stateMutability": "view",
      "type": "function"
    },
    {
      "inputs": [
        {
          "internalType": "address",
          "name": "_token",
          "type": "address"
        },
        {
          "internalType": "uint256",
          "name": "_amountInUsd",
          "type": "uint256"
        }
      ],
      "name": "quoteUsdToToken",
      "outputs": [
        {
          "internalType": "uint256",
          "name": "_amount",
          "type": "uint256"
        },
        {
          "internalType": "uint256",
          "name": "_lastUpdatedAt",
          "type": "uint256"
        }
      ],
      "stateMutability": "view",
      "type": "function"
    },
    {
      "inputs": [
        {
          "internalType": "address",
          "name": "_proposedGovernor",
          "type": "address"
        }
      ],
      "name": "transferGovernorship",
      "outputs": [],
      "stateMutability": "nonpayable",
      "type": "function"
    },
    {
      "inputs": [],
      "name": "wbtc",
      "outputs": [
        {
          "internalType": "address",
          "name": "",
          "type": "address"
        }
      ],
      "stateMutability": "view",
      "type": "function"
    },
    {
      "inputs": [],
      "name": "weth",
      "outputs": [
        {
          "internalType": "address",
          "name": "",
          "type": "address"
        }
      ],
      "stateMutability": "view",
      "type": "function"
    }
  ],
  "transactionHash": "0xd1d5378b0d1589b5c2868a4714186052ccf7cecac7b8fc4f5346638f0eac2601",
  "args": [
    "0x47Fb2585D2C56Fe188D0E6ec628a38b74fCeeeDf",
    "0xC02aaA39b223FE8D0A0e5C4F27eAD9083C756Cc2",
    "0x2260fac5e5542a773aa44fbcfedf7c193bc2c599"
  ],
  "numDeployments": 1,
  "solcInputHash": "0cf63522f4d165bf4001033f6d2eeadf",
  "bytecode": "0x60e060405234801561001057600080fd5b50604051610b8c380380610b8c83398101604081905261002f91610191565b6000805462010000600160b01b03191633620100008102919091178255604051909182917fd4459d5b8b913cab0244230fd9b1c08b6ceace7fe9230e60d0f74cbffdf849d0908290a3506001600160a01b0383166100c85760405162461bcd60e51b81526020600482015260116024820152707a65726f2d666565642d6164647265737360781b60448201526064015b60405180910390fd5b6001600160a01b0382166101125760405162461bcd60e51b81526020600482015260116024820152707a65726f2d776574682d6164647265737360781b60448201526064016100bf565b6001600160a01b03811661015c5760405162461bcd60e51b81526020600482015260116024820152707a65726f2d776274632d6164647265737360781b60448201526064016100bf565b6001600160a01b0392831660805290821660a0521660c0526101de565b6001600160a01b038116811461018e57600080fd5b50565b6000806000606084860312156101a657600080fd5b83516101b181610179565b60208501519093506101c281610179565b60408501519092506101d381610179565b809150509250925092565b60805160a05160c05161096b6102216000396000818160e7015261053a01526000818161010e01526104e401526000818161013501526105b6015261096b6000f3fe608060405234801561001057600080fd5b506004361061009e5760003560e01c80638d0dba00116100665780638d0dba0014610157578063b5e9bef51461017f578063b646638414610192578063b6aa515b146101a5578063f3b27bc3146101ba57600080fd5b80630c340a24146100a35780631bf6c21b146100d95780633cdc5389146100e25780633fc8cef314610109578063741bef1a14610130575b600080fd5b6000546100bc906201000090046001600160a01b031681565b6040516001600160a01b0390911681526020015b60405180910390f35b6100bc61034881565b6100bc7f000000000000000000000000000000000000000000000000000000000000000081565b6100bc7f000000000000000000000000000000000000000000000000000000000000000081565b6100bc7f000000000000000000000000000000000000000000000000000000000000000081565b61016a6101653660046106d6565b6101c2565b604080519283526020830191909152016100d0565b61016a61018d3660046106d6565b610272565b61016a6101a0366004610700565b61030f565b6101b86101b336600461073c565b610348565b005b6101b8610411565b60008060006101d0856104df565b8093508192505050846001600160a01b031663313ce5676040518163ffffffff1660e01b815260040160206040518083038186803b15801561021157600080fd5b505afa158015610225573d6000803e3d6000fd5b505050506040513d601f19601f820116820180604052508101906102499190610757565b61025490600a61087b565b61025e828661088a565b61026891906108a9565b9250509250929050565b6000806000610280856104df565b809350819250505080856001600160a01b031663313ce5676040518163ffffffff1660e01b815260040160206040518083038186803b1580156102c257600080fd5b505afa1580156102d6573d6000803e3d6000fd5b505050506040513d601f19601f820116820180604052508101906102fa9190610757565b61030590600a61087b565b61025e908661088a565b60008060008061031f87866101c2565b9150915061032d8683610272565b909450925061033c818461064a565b92505050935093915050565b6000546001600160a01b036201000090910416331461039d5760405162461bcd60e51b815260206004820152600c60248201526b3737ba16b3b7bb32b93737b960a11b60448201526064015b60405180910390fd5b6001600160a01b0381166103ef5760405162461bcd60e51b815260206004820152601960248201527870726f706f7365642d676f7665726e6f722d69732d7a65726f60381b6044820152606401610394565b600180546001600160a01b0319166001600160a01b0392909216919091179055565b6001546001600160a01b031633146104675760405162461bcd60e51b81526020600482015260196024820152783737ba16ba343296b83937b837b9b2b216b3b7bb32b93737b960391b6044820152606401610394565b600154600080546040516001600160a01b039384169362010000909204909116917fd4459d5b8b913cab0244230fd9b1c08b6ceace7fe9230e60d0f74cbffdf849d091a3600180546000805462010000600160b01b0319166001600160a01b03831662010000021790556001600160a01b0319169055565b6000807f00000000000000000000000000000000000000000000000000000000000000006001600160a01b0316836001600160a01b031614156105385773eeeeeeeeeeeeeeeeeeeeeeeeeeeeeeeeeeeeeeee925061058a565b7f00000000000000000000000000000000000000000000000000000000000000006001600160a01b0316836001600160a01b0316141561058a5773bbbbbbbbbbbbbbbbbbbbbbbbbbbbbbbbbbbbbbbb92505b60405163bcfd032d60e01b81526001600160a01b038481166004830152610348602483015260009182917f0000000000000000000000000000000000000000000000000000000000000000169063bcfd032d9060440160a06040518083038186803b1580156105f857600080fd5b505afa15801561060c573d6000803e3d6000fd5b505050506040513d601f19601f8201168201806040525081019061063091906108e5565b5093505092505061064082610664565b9590945092505050565b6000818310610659578161065b565b825b90505b92915050565b6000808212156106b65760405162461bcd60e51b815260206004820181905260248201527f53616665436173743a2076616c7565206d75737420626520706f7369746976656044820152606401610394565b5090565b80356001600160a01b03811681146106d157600080fd5b919050565b600080604083850312156106e957600080fd5b6106f2836106ba565b946020939093013593505050565b60008060006060848603121561071557600080fd5b61071e846106ba565b925061072c602085016106ba565b9150604084013590509250925092565b60006020828403121561074e57600080fd5b61065b826106ba565b60006020828403121561076957600080fd5b815160ff8116811461077a57600080fd5b9392505050565b634e487b7160e01b600052601160045260246000fd5b600181815b808511156107d25781600019048211156107b8576107b8610781565b808516156107c557918102915b93841c939080029061079c565b509250929050565b6000826107e95750600161065e565b816107f65750600061065e565b816001811461080c576002811461081657610832565b600191505061065e565b60ff84111561082757610827610781565b50506001821b61065e565b5060208310610133831016604e8410600b8410161715610855575081810a61065e565b61085f8383610797565b806000190482111561087357610873610781565b029392505050565b600061065b60ff8416836107da565b60008160001904831182151516156108a4576108a4610781565b500290565b6000826108c657634e487b7160e01b600052601260045260246000fd5b500490565b805169ffffffffffffffffffff811681146106d157600080fd5b600080600080600060a086880312156108fd57600080fd5b610906866108cb565b9450602086015193506040860151925060608601519150610929608087016108cb565b9050929550929590935056fea26469706673582212205073dc1d1bc78e785db75916ebf5d5ce4d108350ada5c110a2770c1d36c618a764736f6c63430008090033",
  "devdoc": {
    "details": "This contract wraps chainlink price feed",
    "kind": "dev",
    "methods": {
      "acceptGovernorship()": {
        "details": "Allows new governor to accept governorship of the contract."
      },
      "quote(address,address,uint256)": {
        "params": {
          "_amountIn": "Amount of input token",
          "_tokenIn": "The address of assetIn",
          "_tokenOut": "The address of assetOut"
        },
        "returns": {
          "_amountOut": "Amount out",
          "_lastUpdatedAt": "Timestamp when price was last updated"
        }
      },
      "quoteTokenToUsd(address,uint256)": {
        "params": {
          "_amount": "Amount of input token.",
          "_token": "The address of assetIn"
        },
        "returns": {
          "_amountInUsd": "Amount in USD",
          "_lastUpdatedAt": "Timestamp when price was last updated"
        }
      },
      "quoteUsdToToken(address,uint256)": {
        "params": {
          "_amountInUsd": "Input amount in USD",
          "_token": "The address of assetIn"
        },
        "returns": {
          "_amount": "Output amount of token",
          "_lastUpdatedAt": "Timestamp when price was last updated"
        }
      },
      "transferGovernorship(address)": {
        "details": "Transfers governorship of the contract to a new account (`proposedGovernor`). Can only be called by the current owner."
      }
    },
    "title": "ChainLink's price provider",
    "version": 1
  },
  "userdoc": {
    "kind": "user",
    "methods": {
      "quote(address,address,uint256)": {
        "notice": "Get quote"
      },
      "quoteTokenToUsd(address,uint256)": {
        "notice": "Get quote in USD amount"
      },
      "quoteUsdToToken(address,uint256)": {
        "notice": "Get quote from USD amount to amount of token"
      }
    },
    "version": 1
  },
  "storageLayout": {
    "storage": [
      {
        "astId": 2264,
        "contract": "contracts/ChainlinkPriceProvider.sol:ChainlinkPriceProvider",
        "label": "_initialized",
        "offset": 0,
        "slot": "0",
        "type": "t_bool"
      },
      {
        "astId": 2267,
        "contract": "contracts/ChainlinkPriceProvider.sol:ChainlinkPriceProvider",
        "label": "_initializing",
        "offset": 1,
        "slot": "0",
        "type": "t_bool"
      },
      {
        "astId": 1204,
        "contract": "contracts/ChainlinkPriceProvider.sol:ChainlinkPriceProvider",
        "label": "governor",
        "offset": 2,
        "slot": "0",
        "type": "t_address"
      },
      {
        "astId": 1206,
        "contract": "contracts/ChainlinkPriceProvider.sol:ChainlinkPriceProvider",
        "label": "proposedGovernor",
        "offset": 0,
        "slot": "1",
        "type": "t_address"
      }
    ],
    "types": {
      "t_address": {
        "encoding": "inplace",
        "label": "address",
        "numberOfBytes": "20"
      },
      "t_bool": {
        "encoding": "inplace",
        "label": "bool",
        "numberOfBytes": "1"
      }
    }
  }
}